:100000000C9434000C9449000C9449000C94490061
:100010000C9449000C9449000C9449000C9449003C
:100020000C9449000C9449000C9449000C9449002C
:100030000C9449000C9449000C9449000C9449001C
:100040000C9449000C9449000C9449000C9449000C
:100050000C9449000C9449000C9449000C944900FC
:100060000C9449000C94490011241FBECFEFD8E036
:10007000DEBFCDBF11E0A0E0B1E0E2E1F1E002C0FF
:1000800005900D92A630B107D9F70E9451000C944B
:1000900087000C940000259A239A8CB581658CBD4D
:1000A0000895CF93DF9300D000D01F92CDB7DEB775
:1000B0000E944B008FEF8AB987B9269A85E0E0E06D
:1000C000F1E0DE01119601900D928A95E1F780E052
:1000D00090E02E98E1E0F0E0EC0FFD1FE80FF91F33
:1000E00020812EBD2BB90DB407FEFDCF2E9A0196AF
:1000F0008530910514F080E090E02FEF39E648E17B
:10010000215030404040E1F700C00000E2CFF894B9
:02011000FFCF1F
:06011200803300FFE30052
:00000001FF
